:020000040000FA
:1000000068020020F1020000F9020000FB0200007B
:10001000FD020000FF0200000103000000000000DC
:1000200000000000000000000000000003030000CA
:100030000503000000000000070300008104000029
:100040000B0300000D0300000F030000110300006C
:10005000130300001503000017030000190300003C
:100060001B0300001D0300001F030000210300000C
:1000700023030000250300002703000029030000DC
:100080002B0300002D0300002F03000031030000AC
:10009000330300003503000037030000390300007C
:1000A0003B0300003D0300003F030000410300004C
:1000B000430300004503000047030000490300001C
:1000C0004B0300004D0300004F03000051030000EC
:1000D00053030000550300005703000059030000BC
:1000E0005B0300005D030000000000005F030000F0
:1000F0006103000063030000650300006703000064
:10010000690300006B0300006D0300006F03000033
:1001100000000000000000007103000073030000F5
:100120007503000077030000790300007B030000E3
:100130007D0300007F0300008103000083030000B3
:1001400000000000000000000000000000000000AF
:100150008503000087030000890300008B03000073
:10016000000000000000000000000000000000008F
:10017000000000000000000000000000000000007F
:10018000000000000000000000000000000000006F
:10019000000000000000000000000000000000005F
:1001A000000000000000000000000000000000004F
:1001B0008D0300008F0300009103000093030000F3
:1001C0009503000097030000990300009B030000C3
:1001D0009D0300009F030000A1030000A303000093
:1001E000A5030000A7030000A90300000000000011
:1001F00000000000AB030000AD030000AF030000EF
:10020000B1030000B3030000000000000000000084
:10021000B5030000B7030000B9030000BB030000F2
:10022000BD030000BF030000C1030000C3030000C2
:10023000C5030000C7030000C9030000CB03000092
:10024000CD030000CF030000D1030000D303000062
:10025000D5030000D7030000D9030000DB03000032
:10026000DD030000DF030000E103000000F002F8FE
:1002700000F02EF80AA090E8000C82448344AAF112
:100280000107DA4501D100F023F8AFF2090EBAE810
:100290000F0013F0010F18BFFB1A43F001031847BA
:1002A0000805000018050000002300240025002692
:1002B000103A28BF78C1FBD8520728BF30C148BFC9
:1002C0000B6070471FB500F062FA1FBD10B510BD7E
:1002D00000F09BF81146FFF7F5FF00F039FA00F047
:1002E000B9F803B4FFF7F2FF03BC00F0C1F8000057
:1002F0003F4880473F480047FEE7FEE7FEE7FEE74E
:10030000FEE7FEE7FEE7FEE7FEE7FEE7FEE7FEE7C5
:10031000FEE7FEE7FEE7FEE7FEE7FEE7FEE7FEE7B5
:10032000FEE7FEE7FEE7FEE7FEE7FEE7FEE7FEE7A5
:10033000FEE7FEE7FEE7FEE7FEE7FEE7FEE7FEE795
:10034000FEE7FEE7FEE7FEE7FEE7FEE7FEE7FEE785
:10035000FEE7FEE7FEE7FEE7FEE7FEE7FEE7FEE775
:10036000FEE7FEE7FEE7FEE7FEE7FEE7FEE7FEE765
:10037000FEE7FEE7FEE7FEE7FEE7FEE7FEE7FEE755
:10038000FEE7FEE7FEE7FEE7FEE7FEE7FEE7FEE745
:10039000FEE7FEE7FEE7FEE7FEE7FEE7FEE7FEE735
:1003A000FEE7FEE7FEE7FEE7FEE7FEE7FEE7FEE725
:1003B000FEE7FEE7FEE7FEE7FEE7FEE7FEE7FEE715
:1003C000FEE7FEE7FEE7FEE7FEE7FEE7FEE7FEE705
:1003D000FEE7FEE7FEE7FEE7FEE7FEE7FEE7FEE7F5
:1003E000FEE7000004480549034A054B704700003A
:1003F000D10400006D0200006800002068020020A7
:1004000068000020704770477047754600F02CF870
:10041000AE4605006946534620F00700854618B0F1
:1004200020B5FFF7DFFFBDE820404FF000064FF09A
:1004300000074FF000084FF0000BAC46ACE8C009D5
:10044000ACE8C009ACE8C009ACE8C00921F007017C
:100450008D46704710B50446AFF300802046BDE8D6
:100460001040FFF73EBF000000487047000000202A
:1004700001491820ABBEFEE72600020070470000CD
:1004800040F26001C2F20001086801300860704764
:100490004EF21001CEF20001002008604EF214036B
:1004A000CEF200036FF07F421A604EF21802CEF2D5
:1004B00000021060086840F0070008604EF6205106
:1004C000CEF200010868032262F35F700860704793
:1004D00081B04EF68851CEF20001086840F47000F9
:1004E00008604EF27001C4F20F0142F61000C0F233
:1004F000807008604EF26002C4F20F0243F6D12011
:10050000C0F28E70106042F64250C0F29E10106031
:1005100042F60000C0F28010086000200090FFE763
:100520000098C0087C2805D8FFE7FFE70098013055
:100530000090F5E74EF26001C4F20F0140F6425020
:10054000C0F29E1008604EF27001C4F20F0140F636
:100550000000C0F28010086000200090FFE70098C3
:10056000C0087C2805D8FFE7FFE70098013000901D
:10057000F5E74EF26001C4F20F0140F64250C0F2BE
:10058000DE100860FFE74EF25000C4F20F00006872
:1005900000F04000402801D0FFE7F4E74EF2600190
:1005A000C4F20F0140F24250C0F2DE1008604EF279
:1005B0007001C4F20F014FF0C0700860002000907D
:1005C000FFE7009842F20F71884205D8FFE7FFE786
:1005D000009801300090F4E701B0704781B00090BE
:1005E00040F26001C2F200010020086062B661B60C
:1005F000FFE740F26000C2F2000000680099884204
:1006000001D2FFE7F5E772B671B601B0704700009E
:1006100083B0029001910092009848B9FFE70199D8
:10062000012000FA01F202990868904308600DE089
:100630000098012809D1FFE70199012000FA01F291
:100640000299086810430860FFE7FFE703B07047AE
:1006500084B0039002910192039944F24B30C4F6A6
:100660004F40C1F820050299012000FA01F3039AD6
:10067000D2F824151943C2F82415029900FA01F2A0
:100680000399D1F828059043C1F828050298810004
:100690000F2000FA01F20399D1F82C059043C1F81C
:1006A0002C050198009020B1FFE7009801280BD09D
:1006B00015E00299012000FA01F20399D1F8000433
:1006C0009043C1F800040AE00299012000FA01F207
:1006D0000399D1F800041043C1F80004FFE7029920
:1006E000012000FA01F3039AD2F820149943C2F8CA
:1006F0002014029900FA01F3039AD2F81C15194349
:10070000C2F81C15029900FA01F203990868904397
:10071000086004B07047000080B584B00390029177
:100720004DF20000C4F20500009001220192114632
:10073000FFF76EFF0398FFF751FF00980199002221
:10074000FFF766FF0298FFF749FF04B080BD000085
:1007500080B582B00020019000904EF20810C4F2E3
:100760000F00016841F02001016000680090FFF770
:100770008FFE4DF20000C4F2050001221146FFF782
:1007800067FFFFE702210846FFF7C6FFFAE7F1EE31
:10079000100A4FF6FF71C0F2C03120EA010040F0AC
:1007A0004070E1EE100A7047B8070000000000201A
:0807B00068020000A80200002D
:04000005000002F104
:00000001FF
